S00C0000706F706F2E737265635A
S11300000C9434000C9446000C9446000C94460066
S11300100C9446000C9446000C9446000C94460044
S11300200C9446000C9446000C9446000C94460034
S11300300C9446000C9446000C9446000C94460024
S11300400C9446000C9446000C9446000C94460014
S11300500C9446000C9446000C9446000C94460004
S11300600C9446000C94460011241FBECFEFD4E03C
S1130070DEBFCDBF21E0A0E0B1E001C01D92AD34F0
S1130080B207E1F70E9476000C94C2040C940000BD
S11300908FE384B915B81AB8089510927C0086E9E4
S11300A080937A0008951092C50085E18093C4007E
S11300B01092C00088E18093C10086E08093C20062
S11300C0089583EA809380008AE08093810087E327
S11300D084B986B3886186BB0895EAE7F0E080813D
S11300E080648083808184FFFDCF089510921C0179
S11300F010921B01109248011092470110922C019A
S113010010922B011092420110924101109222018F
S11301101092210110921A011092190110920F01EC
S113012010920E0110922E0110922D0110920401D2
S1130130109205011092060110920701109200011D
S113014010920101109202011092030140E050E06C
S113015060EA70E44093390150933A0160933B01A3
S113016070933C018DEC9CECACECBDE380934901B5
S113017090934A01A0934B01B0934C011092090152
S113018010920A0110920B0110920C014093270166
S1130190509328016093290170932A0180933D01B3
S11301A090933E01A0933F01B0934001109223012C
S11301B010922401109225011092260180E090E013
S11301C0A8ECB3E48093150190931601A093170152
S11301D0B09318010E9448000E944D000E945300F1
S11301E00E946100CCE7D0E00F2EF8E7AF2EB12CCF
S11301F0F02D09E710E00F2E88248A94F3E09F2E57
S1130200F02D0F2EF8E82F2E312CF02D289A88810E
S1130210807F88830E946D00F50120812093100166
S1130220F8018081837080930D0190E0982F8827D6
S1130230820F911D90931C0180931B018881807F04
S113024088838881816088830E946D00F501208104
S113025020931001F8018081837080930D0190E058
S1130260982F8827820F911D90934801809347010E
S11302708881807F88838881826088830E946D0062
S1130280F501208120931001F8018081837080930F
S11302900D0190E0982F8827820F911D90932C01D7
S11302A080932B018881807F888388818360888301
S11302B00E946D00F501208120931001F8018081D6
S11302C0837080930D0190E0982F8827820F911DF1
S11302D09093420180934101289820912B01309101
S11302E02C018091410190914201820F931F209132
S11302F01B0130911C01821B930B2091470130910B
S11303004801821B930BBC0112F46F5F7F4F7595FC
S11303106795882777FD8095982F0E94AB036B0122
S11303207C016093110170931201809313019093E7
S1130330140120910401309105014091060150916E
S113034007010E94140360930401709305018093D4
S1130350060190930701409015015090160160909A
S1130360170170901801A30192010E943704882399
S113037044F040920401509205016092060170928B
S1130380070177FA709477F8709420910401309102
S113039005014091060150910701C301B2010E9479
S11303A03704882344F0409204015092050160927E
S11303B00601709207012091390130913A01409170
S11303C03B0150913C01C701B6010E943B046B0103
S11303D07C012091490130914A0140914B01509197
S11303E04C01609104017091050180910601909186
S11303F007010E943B049B01AC01C701B6010E94A6
S113040014036093430170934401809345019093D6
S113041046010E947803709334016093330177237B
S113042014F02D9A0CC02D988091330190913401D1
S11304309195819591099093340180933301809132
S11304403301909134018F3FF3E09F072CF0909299
S113045034018092330107C01816190624F0109253
S1130460340110923301B29BFECF809133019091FD
S11304703401EAE8F0E09183808386B3886186BB27
S113048020914701309148018091410190914201AE
S1130490820F931F20911B0130911C01821B930B2F
S11304A020912B0130912C01821B930BBC0112F47F
S11304B06F5F7F4F75956795882777FD8095982F97
S11304C00E94AB036B017C0160931D0170931E01BC
S11304D080931F019093200120910001309101012C
S11304E040910201509103010E94140360930001A2
S11304F070930101809302019093030140901501D0
S1130500509016016090170170901801A301920198
S11305100E943704882344F0409200015092010164
S1130520609202017092030177FA709477F87094E4
S11305302091000130910101409102015091030189
S1130540C301B2010E943704882344F040920001A1
S113055050920101609202017092030120912701DF
S1130560309128014091290150912A01C701B60117
S11305700E943B046B017C0120913D0130913E01BE
S113058040913F015091400160910001709101013F
S113059080910201909103010E943B049B01AC01F4
S11305A0C701B6010E9414036093350170933601AC
S11305B080933701909338010E947803709332013D
S11305C060933101772314F02C980CC02C9A8091FD
S11305D03101909132019195819591099093320165
S11305E08093310180913101909132018F3FF3E08A
S11305F09F072CF0909232018092310107C01816A7
S1130600190624F01092320110923101B19BFECFF1
S11306108091310190913201F1019183808386B3FD
S1130620886186BBF3CD5058BB27AA270ED0E5C0FE
S1130630D6D030F0DBD020F031F49F3F11F41EF41B
S1130640CBC00EF4E095E7FBC1C0E92FE7D080F3FF
S1130650BA17620773078407950718F071F49EF5BB
S1130660FFC00EF4E0950B2EBA2FA02D0B01B9019B
S113067090010C01CA01A0011124FF27591B99F014
S1130680593F50F4503E68F11A16F040A22F232F20
S1130690342F4427585FF3CF469537952795A79570
S11306A0F0405395C9F77EF41F16BA0B620B730B17
S11306B0840BBAF09150A1F0FF0FBB1F661F771F88
S11306C0881FC2F70EC0BA0F621F731F841F48F43D
S11306D0879577956795B795F7959E3F08F0B3CFC3
S11306E09395880F08F09927EE0F979587950895AD
S11306F004D06894B111B5C0089598D088F09F577C
S113070090F0B92F9927B751A0F0D1F0660F771F59
S1130710881F991F1AF0BA95C9F712C0B13081F039
S11307209FD0B1E008959CC0672F782F8827B85FC9
S113073039F0B93FCCF3869577956795B395D9F79A
S11307403EF490958095709561957F4F8F4F9F4FA4
S11307500895E89409C097FB3EF4909580957095B0
S113076061957F4F8F4F9F4F9923A9F0F92F96E9F9
S1130770BB279395F695879577956795B795F1116E
S1130780F8CFFAF4BB0F11F460FF1BC06F5F7F4F0B
S11307908F4F9F4F16C0882311F096E911C077231D
S11307A021F09EE8872F762F05C0662371F096E826
S11307B0862F70E060E02AF09A95660F771F881FF5
S11307C0DAF7880F9695879597F9089597F99F67B3
S11307D080E870E060E008959FEF80EC08950024C5
S11307E00A941616170618060906089500240A9492
S11307F012161306140605060895092E0394000C18
S113080011F4882352F0BB0F40F4BF2B11F460FFA6
S113081004C06F5F7F4F8F4F9F4F089557FD9058CF
S1130820440F551F59F05F3F71F04795880F97FBB0
S1130830991F61F09F3F79F087950895121613066A
S11308401406551FF2CF4695F1DF08C01616170699
S11308501806991FF1CF86957105610508940895CE
S1130860E894BB2766277727CB0197F9089566D0CC
S113087008F48FEF08950BD0C0CFB1DF28F0B6DFB6
S113088018F0952309F0A2CFA7CF1124EACFC6DF31
S1130890A0F3959FD1F3950F50E0551F629FF0018F
S11308A0729FBB27F00DB11D639FAA27F00DB11DE8
S11308B0AA1F649F6627B00DA11D661F829F222771
S11308C0B00DA11D621F739FB00DA11D621F839FF8
S11308D0A00D611D221F749F3327A00D611D231FCE
S11308E0849F600D211D822F762F6A2F11249F571C
S11308F050408AF0E1F088234AF0EE0FFF1FBB1F3F
S1130900661F771F881F91505040A9F79E3F5105DD
S113091070F05CCFA6CF5F3FECF3983EDCF3869596
S113092077956795B795F795E7959F5FC1F7FE2B88
S1130930880F911D9695879597F90895990F00084A
S1130940550FAA0BE0E8FEEF16161706E807F9079D
S1130950C0F012161306E407F50798F0621B730B38
S1130960840B950B39F40A2661F0232B242B252BB9
S113097021F408950A2609F4A140A6958FEF811D5C
S10B0980811D0895F894FFCFD6
S9030000FC
